:020000040800F2
:10000000A09C002021030008FD150008271400080B
:10001000ED1500089706000885190008000000008B
:100020000000000000000000000000002D02000899
:10003000990600080000000089020008FF1500086A
:100040003B0300083B0300083B0300083B03000898
:100050003B0300083B0300083B0300083B03000888
:100060003B0300089B0600083B0300083B03000815
:100070003B0300083B0300083B0300083B03000868
:100080003B0300083B0300083B0300083B03000858
:100090003B0300083B0300083B0300083B03000848
:1000A0003B0300083B0300083B0300083B03000838
:1000B0003B0300083B0300083B0300083B03000828
:1000C0003B0300083B0300083B0300083B03000818
:1000D0003B0300083B0300083B0300083B03000808
:1000E0003B0300083B0300083B0300083B030008F8
:1000F0003B030008B91600083B0300083B03000857
:100100003B0300083B0300083B0300083B030008D7
:100110003B0300083B0300083B0300083B030008C7
:100120003B0300083B0300083B0300083B030008B7
:100130003B0300083B0300083B0300083B030008A7
:100140003B0300083B0300083B0300083B03000897
:100150003B0300083B0300083B0300083B03000887
:100160003B0300083B0300083B0300083B03000877
:100170003B0300083B0300083B03000800000000AD
:100180003B0300083B03000800F002F800F03EF8D3
:100190000AA090E8000C82448344AAF10107DA45E2
:1001A00001D100F033F8AFF2090EBAE80F0013F0F6
:1001B000010F18BFFB1A43F0010318471C4300004E
:1001C0003C430000103A24BF78C878C1FAD85207DF
:1001D00024BF30C830C144BF04680C6070470000C1
:1001E0000023002400250026103A28BF78C1FBD840
:1001F000520728BF30C148BF0B6070471FB503F0DE
:1002000065FB00F03AF91FBD10B510BD00F009FA0A
:100210001146FFF7F3FF01F0EDFD00F027FA03B4FC
:10022000FFF7F2FF03BC00F02FFA00002C4B196817
:100230000868B0E8F04F80F30988BFF36F8F4FF084
:10024000000080F311887047000000000848006833
:10025000006880F308884FF0000080F3148862B6CD
:1002600061B6BFF34F8FBFF36F8F00DF00BF00BFDA
:1002700008ED00E0DFF80C00016841F47001016056
:10028000704700BF88ED00E0EFF30980BFF36F8F88
:10029000134B1A681EF0100F08BF20ED108A20E9DA
:1002A000F04F106009B44FF0500080F31188BFF395
:1002B0004F8FBFF36F8F02F075FC4FF0000080F39B
:1002C000118809BC19680868B0E8F04F1EF0100FDB
:1002D00008BFB0EC108A80F30988BFF36F8F7047B6
:1002E00058000020EFF30580704700000B49D1F85B
:1002F00000C04A685CF8043B1068184442F8040BDC
:100300008C4528BFA1F1DC0C8A4228BFA1F1DC0298
:10031000C1F800C04A6020F00040704738960020C5
:100320000948804709480047FEE7FEE7FEE7FEE789
:10033000FEE7FEE7FEE7FEE7FEE7FEE704480549C5
:10034000054A064B70470000A916000889010008FD
:10035000A0960020A09C0020A0980020A09800203B
:1003600053EA020C00F069802DE9F04B4FF00006D3
:10037000002B1FBFB3FA83F503FA05F424FA05F640
:100380005E4012BF1643B2FA82F502FA05F4C5F1D7
:1003900020051EBF22FA05FC44EA0C04203556EA6B
:1003A000044C4FEA144418BF641C4FF000084FF08F
:1003B0000009904271EB030C39D3002919BFB1FA3F
:1003C00081F701FA07F6B0FA80F700FA07F6C7F1ED
:1003D00020071EBF20FA07FC46EA0C062037B6FBB2
:1003E000F4FCA7EB0507103F07F01F0BCBF120062D
:1003F0000CFA0BFB2CFA06F644BFB3460026202F5E
:10040000A4BF5E464FF0000B5BEA060C08BF4FF03E
:10041000010B19EB0B09ABFB027C48EB0608C01B78
:1004200006FB02CC0BFB03CC71EB0C01C1E70B46C6
:10043000024641464846BDE8F08B13B54FF0000038
:100440004FF00001AFF30080BDE81C407047000092
:100450000B4910B5A1F17C020A4CC2E937123721D1
:1004600006E000EB104342F82130074B00FB03404D
:100470000B1EA1F10101F4DC10BD0120E8E7000032
:10048000D8950020E119D666CD0D0100032A40F26F
:10049000308010F0030C00F0158011F8013BBCF126
:1004A000020F624498BF11F801CB00F8013B38BF3E
:1004B00011F8013BA2F1040298BF00F801CB38BF4C
:1004C00000F8013B11F0030300F05780083AC0F038
:1004D000088051F8043B083A51F804CBA0E8081012
:1004E000F5E7121D5CBF51F8043B40F8043BAFF345
:1004F0000080D20724BF11F8013B11F801CB48BF9F
:1005000011F8012B24BF00F8013B00F801CB48BFD4
:1005100000F8012B704702F0FF0343EA032242EA8E
:10052000024200F05EB84FF0000200B51346944658
:100530009646203922BFA0E80C50A0E80C50B1F13B
:100540002001BFF4F7AF090728BFA0E80C5048BF4F
:100550000CC05DF804EB890028BF40F8042B08BFED
:10056000704748BF20F8022B11F0804F18BF00F8E9
:10057000012B704770477047704710B5203AC0F0A4
:100580000B80B1E81850203AA0E81850B1E8185094
:10059000A0E81850BFF4F5AF5FEA027C24BFB1E8D1
:1005A0001850A0E8185044BF18C918C0BDE8104042
:1005B0005FEA827C24BF51F8043B40F8043B08BF4B
:1005C0007047D20728BF31F8023B48BF11F8012B12
:1005D00028BF20F8023B48BF00F8012B70474FF0BE
:1005E00000020429C0F0128010F0030C3FF49DAF0C
:1005F000CCF1040CBCF1020F18BF00F8012BA8BF0E
:1006000020F8022BA1EB0C01FFF78FBF5FEAC17C42
:1006100024BF00F8012B00F8012B48BF00F8012B84
:100620007047754600F02CF8AE4605006946534603
:1006300020F00700854618B020B5FFF77FFEBDE823
:1006400020404FF000064FF000074FF000084FF039
:10065000000B21F00701AC46ACE8C009ACE8C009CA
:10066000ACE8C009ACE8C0098D46704710B5044637
:10067000AFF300802046BDE81040FFF7D0BD00007A
:10068000004870474096002001491820ABBEFEE7A5
:10069000260002007047FEE77047082000F0E6B829
:1006A00072B6FEE730B5B3F5804F05D06FF07041FC
:1006B00040F82210002030BD8C690B688D68234300
:1006C0004C688989240144EA0524234343EA014113
:1006D00050F82230014C23401943E9E70000F0CFE5
:1006E00010B50A6850F8223023F0010340F8223098
:1006F0008C68082C23D000234A682243CC681C4312
:100700000B6922431A434B690E4C1A43CB691A43B7
:100710000B6A1A434B6A1A438B6A1A43CB6A1A4311
:100720000B6B1A438B691343CA6B09681A4350F861
:100730002130A343134340F82130002010BD402353
:10074000DAE700007FFF0F0030B5D1E9003443EA5B
:1007500004138C688D89240244EA054423430C8ADF
:10076000094D00EB820005EB045423430C7D6D0121
:1007700005EB0464896923430B43416801F0404160
:100780000B434360002030BD0000F0FF70B504460D
:1007900000F082F90546601C02D004480078044449
:1007A00000F07AF9401BA042FAD370BD4800002047
:1007B000F0B587B014216846FFF7B5FE154801680B
:1007C000002924D10121016013480024016841F06F
:1007D000010101600068022500F0010005904FF65C
:1007E0008070CDE9000502AA03260C2782E8D0001C
:1007F00069460A4800F046F84EF2B370CDE90005AC
:1008000002AA694682E8D000054800F03BF807B02C
:10081000F0BD0000400000203838024000100240C7
:10082000000C024010B5082817D10C4C2078002885
:1008300013D108210A4800F01DF900280DD12078B5
:1008400000280AD18021074800F019F90648002144
:100850000068BDE8104002F00EBC10BD2900002069
:1008600000100240000002402C000020044910B596
:100870000A68024202D00860FFF7D4FF10BD0000F2
:10088000143C01402DE9F84FDFF8BCA100220125FE
:1008900003264FF00F090AF1040BAAF1040E00BF62
:1008A0000B6805FA02F42340A34270D10F7907F0D8
:1008B0000307012F01D0022F16D187684FEA4208A3
:1008C00006FA08FC27EA0C07D1F80CC00CFA08FC61
:1008D0004CEA070CC0F808C04768A7430C79C4F37A
:1008E000001494403C4344600C79E443A4070AD0CC
:1008F000C4684FEA420C06FA0CF7BC438F6807FA4B
:100900000CF72743C7600C7904F00304022C12D1C2
:10091000D40800EB840CDCF820405707FF0E09FADE
:1009200007F824EA0804D1F8108008FA07F848EA22
:100930000408CCF8208004684FEA420C06FA0CF751
:10094000BC430F7907F0030707FA0CF7274307604A
:100950004C6814F4403F70D03C4C276847F4804703
:100960002760246822F0030704F480440094384C84
:1009700007EB040CDCF8084897074FEA177809FAE8
:1009800008F7BC43334FB84202D1002724E054E0BB
:10099000314FB84201D101271EE0304FB84201D19A
:1009A000022719E02E4FB84201D1032714E02D4F42
:1009B000B84201D104270FE02B4FB84201D10527DF
:1009C0000AE02A4FB84201D1062705E0284FB84275
:1009D00001D1072700E0082707FA08F72743CCF8DA
:1009E0000878DAF800405746D1F804C09C435FEA23
:1009F000CC2C00D51C433C60DBF800405F46D1F8AE
:100A000004C09C435FEA8C2C00D51C433C60DEF89C
:100A100000407746D1F804C09C435FEA8C3C00D587
:100A20001C433C60084F083F3C68D1F804C09C431D
:100A30005FEACC3C00D51C433C60521C102AFFF4FA
:100A40002FAFBDE8F88F0000083C01404438024059
:100A50000030014000000240000402400008024053
:100A6000000C024000100240001402400018024036
:100A7000001C02400069084000D001207047426914
:100A800021EA02030A4043EA0241816170470AB148
:100A9000816170470904FBE70148806870470000E6
:100AA0004800002002488168027811448160704744
:100AB000480000200B4810B5016841F40071016046
:100AC000016841F480610160016841F48071016056
:100AD000032000F09FF80F2000F006F800F050F817
:100AE000002010BD003C024030B505461F4887B0CD
:100AF0000024016841F480710160006806A900F4D7
:100B00008070009001A800F031F90498A8B100F0BD
:100B10004DF940001649174AB0FBF1F11648491E3D
:100B2000026040F2E732C0E90324C0E901148461A5
:100B300000F064FB040003D015E000F037F9E9E7AA
:100B40000D4800F089FB04000DD12D2000F034F891
:100B5000102D07D2002229462D2000F03BF807482F
:100B6000056000E0012407B0204630BD4038024057
:100B700040420F0000200040404C00204C0000206C
:100B80000C4882B0016841F480410160006800F4C3
:100B9000804000900748001F016841F080510160CB
:100BA0000068002200F0805000900F21901E02B0DB
:100BB00000F010B844380240002809DB00F01F02A2
:100BC000012191404009800000F1E020C0F80011AF
:100BD00070470000F0B40E4B1B680C46C3F30223B1
:100BE000C3F10705042D00D90425191D072901D2D9
:100BF000002300E0DB1E012606FA05F1491E214014
:100C000099409E40761E16403143F0BC00F0BBBEBA
:100C10000CED00E0064900F0070208684FF6FF03FC
:100C2000184040EA0220034A104308607047000061
:100C30000CED00E00000FA052DE9F0470E46050036
:100C400065D0DFF81481D8F80000F7B200F0070093
:100C5000B04207D288F80070D8F8000000F0070012
:100C6000B04254D128683D4C810712D5400703D5C6
:100C7000206840F4E05020602878000703D5206801
:100C800040F4604020602068A96820F0F00008432C
:100C900020602878C0072DD03049686808390128BD
:100CA00012D0022813D0032811D00968890700291F
:100CB0002DDA216821F0030101432160FFF7ECFEEA
:100CC000814641F2883A0EE009688903EFE7096836
:100CD0008901ECE7FFF7E0FEA0EB0901514502D9DD
:100CE0000320BDE8F0872068696800F00C00B0EBD5
:100CF000810FEFD1D8F80010404601F00701B14252
:100D000007D90770006800F00700B04201D0012049
:100D1000E7E72878400705D52068E96820F4E05027
:100D2000084320602878000706D52068296920F448
:100D3000604040EAC100206000F048F82168084A9D
:100D4000C1F30311515CC8400649086006480068B9
:100D5000FFF7CAFE0020C4E7003C0240083802400A
:100D6000C0440008540000204C0000200F22026004
:100D70000C4A136803F003034360136803F0F003A5
:100D80008360136803F4E053C36012684FF4E053C8
:100D900003EAD20202610448006800F0070008601C
:100DA0007047000008380240003C024004480549F2
:100DB00000680968044AC1F38221515CC840704749
:100DC0005400002008380240D0440008154810B5EF
:100DD000006810F00C02144813D04110042A0FD000
:100DE000082A0ED10F4C241F2268236802F03F020C
:100DF0005B0207D52068C0F38810A0FB010106E064
:100E0000084610BD2168C1F38811A1FB0001002331
:100E1000FFF7A6FA2168C1F30141491C4900B0FB64
:100E2000F1F010BD083802400024F4002DE9F84F1D
:100E300004006ED02078DFF84C93C007A9F10405B8
:100E40004AD009F104000168C1F38101012908D0E9
:100E50000068C0F3810002280AD1D9F800004002DE
:100E600006D52868800337D560680028E1D033E0D4
:100E70006068B0F5803F10D0B0F5A02F286810D082
:100E800020F480302860286820F480202860606882
:100E9000A8B1FFF701FE06460DE0286840F4803057
:100EA000F4E740F480202860F7E700BFFFF7F4FD87
:100EB000801B642873D828688003F7D50CE0FFF7FF
:100EC000EBFD064605E000BFFFF7E6FD801B64284A
:100ED000F0D828688003F7D42078DFF8AC82800748
:100EE0004FF0000A3ED5A748001D016811F00C0F15
:100EF00008D00068C0F3810002280BD1D9F80000A7
:100F0000400207D42868800716D5E068012800D180
:100F100012E033E1E068B8B10120C8F80000FFF743
:100F2000BBFD064605E000BFFFF7B6FD801B0228AB
:100F3000C0D828688007F7D52868216920F0F80014
:100F400040EAC10028600DE0C8F800A0FFF7A4FD4A
:100F5000064604E0FFF7A0FD801B02281FD8286882
:100F60008007F7D42078000722D5864F874861692B
:100F7000703771B101210160FFF78EFD064604E074
:100F8000FFF78AFD801B022809D838688007F7D54B
:100F90000EE0C0F800A0FFF77FFD064605E082E006
:100FA000FFF77AFD801B02287DD838688007F7D4C8
:100FB0002078400768D5DFF8CCB100270BF13C0B57
:100FC000DBF80000C0000BD4DBF8001041F08051CA
:100FD000CBF80010DBF80000012700F080500090F3
:100FE0006B4E3068C00510D4306840F480703060BB
:100FF000FFF752FD009005E0FFF74EFD0099401A03
:10100000022850D83068C005F6D55E4EA0686C3610
:1010100001280FD00528306810D020F00100306082
:10102000306820F004003060A068B8B1FFF734FDEC
:1010300000900FE0306840F00100F4E740F0040059
:101040003060F7E7FFF728FD0099411A41F2883038
:10105000814266D830688007F4D50EE0FFF71CFDAA
:10106000009007E0FFF718FD0099411A41F288301F
:10107000814256D830688007F4D42FB1DBF80010D5
:1010800021F08051CBF80010A069C8B33D49091D7B
:101090000968C1F3810102294AD00228504607D0CD
:1010A000C8F8600000E03CE0FFF7F6FC04463BE0D7
:1010B0004746C8F86000FFF7EFFC064605E000BFB2
:1010C000FFF7EAFC801B02282BD828688001F7D4A0
:1010D000D4E907010843A16A2E4A490802EB0141FD
:1010E000626A41EA8211084394F82C1040EA0161D7
:1010F000C9F8001001203866FFF7CEFC044606E070
:101100003EE000BFFFF7C8FC001B022809D8286892
:101110008001F7D534E000BFFFF7BEFC001B0228BA
:1011200002D90320BDE8F88F28688001F4D427E0B5
:101130000128F7D0D9F80000E26900F4800191425B
:101140001CD1226A00F03F01914217D147F6C071CD
:10115000626A0140B1EB821F10D1A26A4FF0FF33E7
:1011600000F4403103EB5202B1EB024F06D194F888
:101170002C1000F07060B0EB016F01D00120D1E7BE
:101180000020CFE70438024000004742800E47426B
:10119000007000400000FFFF70B515460E460400C9
:1011A00003D094F8490010B107E0012070BD002081
:1011B00084F84800204600F01DF804F1080120687A
:1011C000FFF78EFA3146A2682068FFF7BDFAD4E92E
:1011D00001022946236BFFF765FA2168A06851F8E0
:1011E000202042F0010241F82020012084F849002B
:1011F000002070BDFFF7DCBA7047704710B50400DF
:1012000003D094F83D0010B107E0012010BD00208C
:1012100084F83C00204600F01EF8022084F83D00CF
:10122000211D206800F04EFA012084F8460084F861
:101230003E0084F83F0084F8400084F8410084F8C0
:10124000420084F8430084F8440084F8450084F8A0
:101250003D00002010BD704790F83D10012901D0DD
:1012600001207047022180F83D100168CA6842F0F1
:101270000102CA6000681149884214D0B0F1804F61
:1012800011D00F4988420ED00E4988420BD00E492A
:10129000884208D00D49884205D00D49884202D0C5
:1012A0000C49884204D1816801F00701062903D066
:1012B000016841F001010160002070470000014019
:1012C0000004004000080040000C00400004014001
:1012D000004001400018004070472DE9F0410446ED
:1012E0000068C66805694FF00007A90713D5B10764
:1012F00011D5F91E016101202077206880698007DF
:10130000204602D0FFF7E8FF04E000F07EF8204618
:1013100000F07CF82777680716D5700714D5216888
:101320006FF004000861022020772068806910F4C3
:10133000407F204602D0FFF7CFFF04E000F065F8C1
:10134000204600F063F82777280715D5300713D516
:1013500021686FF008000861042020772068C069C8
:101360008007204602D0FFF7B7FF04E000F04DF8F9
:10137000204600F04BF82777E80616D5F00614D57E
:1013800021686FF010000861082020772068C0698C
:1013900010F4407F204602D0FFF79EFF04E000F0EB
:1013A00034F8204600F032F82777E80708D0F00735
:1013B00006D021686FF001000861204600F028F88F
:1013C000280608D5300606D521686FF08000086130
:1013D0002046FFF711FF680608D5700606D521687C
:1013E0006FF040000861204600F01CF8A8060AD5FE
:1013F000B00608D521686FF0200008612046BDE8DE
:10140000F041FFF7FABEBDE8F08170477047000079
:1014100000680349884201D1FFF744BB70470000D0
:10142000002000407047FEE77CB51548A02100244D
:101430000180A0F1140544802C706C806C70032234
:101440002146012001F070FC68600225CDE90054BE
:10145000002380220BA10D4801F0EEFFCDE90054DE
:10146000002380220AA10C4801F0E6FF0120CDE90B
:1014700000040202002309A10A4801F0DDFF7CBD3F
:101480003C00002042697264000000009D170008C3
:10149000436F6C756D6E00004D18000844697370E1
:1014A0006C6179004D19000800B587B01C216846B1
:1014B000FFF739F815484FF0204110220160144918
:1014C000416000218160C160C0E904128161C16195
:1014D00013020162C0E90913C162016341638163C0
:1014E00041640F20FF230090CDE90103CDE9030201
:1014F0001120CDE90501002269460448FFF74CFEA2
:10150000002801D0FFF7CCF807B000BDF04B002059
:10151000040100A0F0B587B014216846FFF703F876
:101520002E480024016841F010010160016801F0BB
:1015300010010591016841F080010160016801F02E
:1015400080010591016841F001010160016801F02D
:1015500001010591016841F002010160016801F09B
:1015600002010591016841F00801016000681C4E0C
:1015700000F0080005900022C0213046FFF787FAEE
:10158000184F002202213846FFF781FA0820009008
:101590004FF404100125CDE9010569461248FFF713
:1015A00071F9C0200090CDE901546946304603949A
:1015B000FFF768F902200090CDE9015469463846EA
:1015C0000394FFF75FF900220A210920FFF702FBCD
:1015D0000920FFF7F1FA07B0F0BD000030380240F3
:1015E000000002400004024000100240FEE700003C
:1015F000014908807047000000000860FEE710B550
:101600004FF0E020006901F06FFF012803D0BDE832
:10161000104001F073BB10BD30B593B03021684667
:10162000FEF781FF14210CA8FEF77DFF1C48002562
:10163000016841F080510160006800F08050119015
:101640001848016841F4804101600068022400F4F8
:101650008040119001200090000401908001CDE9AC
:10166000064008AA0420A82182E813000B906846CF
:10167000FFF7DCFB08B172B6FEE70CA90F2081E88A
:1016800031004FF4A0500F90109005210CA8FFF7E7
:10169000D3FA002801D072B6FEE713B030BD0000C7
:1016A00040380240007000400248016841F4700177
:1016B0000160704788ED00E00148FFF70EBE0000B2
:1016C000404C0020F0B50268294C2A4D2A4E2B4F81
:1016D0002B4B4FF0804CA04209D0604507D0A84268
:1016E00005D0B04203D0B84201D0984204D122F0D4
:1016F000700E4A6842EA0E02A0421BD0604519D023
:10170000A84217D0B04215D0B84213D0984211D099
:101710001C4DA8420ED01C4DA8420BD01B4DA84218
:1017200008D01B4DA84205D01A4DA84202D01A4D30
:10173000A84203D122F44075CA682A434D6922F0B9
:1017400080022A4302608A68C2620A688262A042FA
:1017500001D0984201D10969016301214161016908
:10176000C90703D0016921F001010161F0BD00004A
:10177000000001400004004000080040000C004050
:101780000004014000400140004401400048014085
:1017900000180040001C004000200040144D32277B
:1017A0000A264FF0000805F114044FF0DA09002171
:1017B000686801F04BFD01280FD060880838608010
:1017C000B4F90200218890FBF6F0084400B22080B2
:1017D000002804DAA4F8008005E06780F0E7DA2842
:1017E00001DDA4F80090642001F0E0F8DFE70000DC
:1017F000280000202DE9F041134D124C4FF4A07841
:101800000126A5F1140700BFB4F900003C280ED84A
:10181000B5F90000B4F90210884203DBB4F90410F2
:10182000884204DD7E70BDE8F04101F0B3B9B5F93E
:101830000000404502D37E7001F0ACF91E2001F09B
:10184000B5F8E1E7D80000203C0000202DE9FC417C
:1018500001F058FE0646364D4FF00108354C62E067
:1018600001F050FE801BB0F57A6F1BD93248D0E9E9
:101870000076FEF73BFDB42190FBF1F201FB120074
:101880000A3060F31F47503060F30F0620780328BA
:1018900005D205EBC001401C20700F604E6001F0C6
:1018A00031FE0646206968B9207858B1002103202E
:1018B000C4F81080CDE900010B4680221FA1224808
:1018C00001F0BAFD002128E035F83120521E12B295
:1018D00025F8312012F1280F11DA0A46431E0AE0DA
:1018E00005EBC207521CD7F808C0C7F800C0D7F8EC
:1018F0000CC0C7F804C09A42F2DB401E207005EB12
:10190000C100827942B935F931201E2A04DA628891
:10191000521C628080F80680491C20788142D3DB0B
:101920001E2001F043F86078002899D0BDE8FC81C2
:10193000D800002028000020B8440008436F6C6CD9
:101940006973696F6E000000F51700080C4C04F114
:1019500014050021A06800F081F8298801232822BD
:10196000A06800F020F8A06800F02CF8E06800F013
:10197000FFF900F0DFFE1E2001F018F8E9E7000093
:1019800028000020FEE70907090E002804DB00F10B
:10199000E02080F80014704700F00F0000F1E02014
:1019A00080F8141D704718B501F11404F02C08D20A
:1019B00002F11404B4F5A07F03D20093142300F0C5
:1019C00059F818BD2DE9FC4782460024214D4FF0FF
:1019D0000108214F39E000BF35F93400002819DA39
:1019E000283080B2CDE9000805EBC40600227388D8
:1019F0001146504600F07DF835F83410283189B290
:101A0000CDE90018B6F90400B188C0F5A07083B222
:101A1000002216E04FF02809CDE9009805EBC40636
:101A200035F8342073880021504600F062F8CDE983
:101A30000098B6F9040035F83420C0F5A070B188DC
:101A400083B2504600F055F8641C38788442C3DBFA
:101A5000BDE8FC87D80000202800002041B100220A
:101A600000214FF416534254491C9942FBD370474E
:101A7000FF22F5E72DE9F04700250127DDF820A03A
:101A80002EE0002428E000BF01EB040C5619BCF145
:101A9000F00F1FDAB6F5A07F1CDAC6EB06160CEBCA
:101AA000061C4FEAEC760CEB56784FEAE80628F075
:101AB0000708ACEB080CCCF1070C10F806800CF012
:101AC000FF0CBAF1000F0FD007FA0CFC28EA0C0843
:101AD00000F80680641CA4B29C42D5D36D1CADB244
:101AE0009D42CED3BDE8F08707FA0CF948EA090811
:101AF000EEE72DE9F0470024DDE9088A8146012759
:101B000029E0002023E00D181619F02D1DDAB6F596
:101B1000A07F1ADAC6EB061605EB0615EE1705EBE5
:101B2000567C4FEAEC062CF0070CA5EB0C05C5F132
:101B30000705EDB2BAF1000F19F806C007FA05F56E
:101B40000DD02CEA050C09F806C0401C80B2984262
:101B5000D9D3641CA4B24445D3D3BDE8F0874CEA82
:101B6000050CF0E770B50446DDE90456002006B127
:101B700004200DB140F008000BB140F010000AB194
:101B800040F0200009B140F04000002C01D040F0AE
:101B9000800070BD2DE9FC4100250126CDE90065DE
:101BA0002B462A4631462846FFF7DCFF6E4F0023BE
:101BB00001223870CDE9006519461846FFF7D2FFBB
:101BC00078700023CDE900651A4619460120FFF719
:101BD000C9FFB8700122CDE9006500231146104607
:101BE000FFF7C0FF4FF0C044F87026803220FEF7A8
:101BF000CDFD28202080CF2020805C4805808321D7
:101C0000018030210180ED212180642101800321A8
:101C100001801221018081210180E821218085211C
:101C20000180068079210180CB212180392101802A
:101C30002C21018005803421018002210180F721BF
:101C4000218020210180EA21218005800580C0219A
:101C5000218026210180C121218011210180C521FF
:101C60002180352101803E210180C7212180BE21B4
:101C7000018036212180397801803A212180552147
:101C80000180B121218005801B210180F22121806A
:101C900008210180262121800680E02121801F214A
:101CA00001801A210180182101800A2101800F2161
:101CB0000180062101804521018087210180322198
:101CC00001800A2101800721018002210180072172
:101CD0000180052101800580E121218005802521E9
:101CE0000180272101800521018010210180092127
:101CF00001803A210180782101804D210180052158
:101D00000180182101800D210180382101803A21B4
:101D100001801F2101802A21218005800580058006
:101D2000EF2101802B2121800580058006803F2145
:101D30000180B721218007210180B62121800A215D
:101D400001808221018027210180058011202080CF
:101D50006420FEF71BFD292020806420FEF716FD7D
:101D60002C202080BDE8FC810800002000000860D5
:101D70002DE9F0478146002140F23F13EF2208464B
:101D800000F01AF8002501264FF6FF784FF4165A96
:101D900019F805705FF0070406FA04F0384201D024
:101DA000002000E04046FFF723FC641EF4D56D1CC4
:101DB0005545EDD3BDE8F08770B54FF0C0452A24F6
:101DC0002C800B4C060A2680C0B22080100A20808E
:101DD000D0B220802B202880080A2080C8B2208022
:101DE000180A2080D8B220802C20288070BD0000E6
:101DF00000000860FEF75EFEFFF70EFCFFF78AFBAF
:101E0000FFF752FB012202210548FEF740FEFFF7D3
:101E1000C1FE00F007F8FFF707FB00F015F8FEE73A
:101E200000040240EFF3058010B16FF00500704729
:101E30000448016811B14FF0FF3070470121016083
:101E400000207047A800002010B5EFF3058010B106
:101E50006FF0050010BD08480168012902D04FF05D
:101E6000FF3010BD054A002182F8141D02210160D7
:101E700000F04CFE002010BDA80000200BE000E0A8
:101E80002DE9F041134C0F460546E6682068001D19
:101E900000F058FC681C07D137B12168BDE8F0415B
:101EA0000D48091D00F09EBC20683544B5424560D0
:101EB000216805D2A06BBDE8F041091D00F07ABC95
:101EC000606B091D00F076FCA06A854200D2A56215
:101ED000BDE8F08158000020785100202DE9F04144
:101EE000054600F08BFC2D4CA068401CA0602068CB
:101EF0002B4F10B1606930B32BE02560A06801283A
:101F000027D1002606EB860007EB800000F044FC9A
:101F1000761C382EF6D3234800F03EFC21481430BE
:101F200000F03AFC1F48283000F036FC1D483C30D9
:101F300000F032FC1B48503000F02EFC1948606362
:101F40001430A06305E02068E96AC06A884200D8BE
:101F50002560606A401C60626864E86A21698842A2
:101F600000D9206100EB800007EB8000291D00F004
:101F700039FC00F063FC606900280CD02068E96A35
:101F8000C06A884207D208494FF080500860BFF30A
:101F90004F8FBFF36F8FBDE8F08100005800002025
:101FA000C84C00202851002004ED00E038B500F0B6
:101FB00025FC104C2068C8B90F4800F0EDFB0E4816
:101FC000143000F0E9FB0C48E060143020610A4B4B
:101FD0000020F03B009003F1500210210A2000F095
:101FE000C4FE206010B105A100F0AAFCBDE8384095
:101FF00000F024BC940000207C520020546D7251EB
:102000000000000030B4026C0B46002A0BD0C168FF
:102010001144C1608468A14201D30168C16030BC31
:102020001846FEF733BA30BC70472DE9F041856B96
:10203000174604460026026C82B1C7B1E068FEF77D
:1020400025FAE168206C091AE1602268914202D207
:10205000A168081AE060022F16D017E02068A8B91E
:10206000A06801F0B9FA06460020A0600EE06068A2
:10207000FEF70CFA216C606808446060A168884231
:1020800004D32068606001E005B16D1E6D1CA5637E
:102090003046BDE8F08110B5044690F8590058B1BB
:1020A00001280CD002280FD0502080F31188BFF3F4
:1020B0004F8FBFF36F8FFEE7206B00F0D3FB2046FE
:1020C000BDE8104000F0CEBB10BD000010484FF43A
:1020D0007051420706D0C01D0D4920F00700411A7B
:1020E000C1F570510B4A00230144C2E900030839CD
:1020F000183A21F0070111604B600B600B1AC0E920
:10210000001393604FF0004053605061704700002F
:102110005C590020C4000020144E154CA6F29C47C8
:102120004FF08058DFF84C9012E000BF00F066FBE3
:10213000F068C568281D00F005FBA068401EA0607F
:102140006068401E606000F079FB2846FFF7A3FF3F
:1021500060680028EAD138680128F9D9C9F80080F8
:10216000BFF34F8FBFF36F8FF2E700006451002081
:102170005800002004ED00E070B51D46049C51B1EC
:10218000C4F80020C4E90F010121204600F020FE20
:1021900084F84C5070BD2460F4E700002DE9F05F36
:1021A0008846DDE90B941546834691009A460A9EBF
:1021B000A522206BFEF7AFF96FF00301206B01EB56
:1021C0008501084420F00707780707D0502080F3E6
:1021D0001188BFF34F8FBFF36F8FFEE70025B8F173
:1021E000000F0FD05FF00000221818F8001082F8DE
:1021F000341018F8001011B1401C1028F4D384F8E2
:10220000435001E084F83450382E00D33726E6627C
:10221000C4E91365201D00F0CAFA04F1180000F0AB
:10222000C6FA2461C6F138006462A061656584F86D
:10223000585052465946384600F066FA2060B9F1C7
:10224000000F01D0C9F80040BDE8F09F30B511493A
:1022500000E011460A688242FBD34B685C18844256
:1022600003D1406818444860084643681C189442EB
:1022700009D1084C183C2468A24209D052681A447B
:1022800042600A6812680260814200D0086030BD76
:102290000460F9E7C400002070B5002441600B4DD4
:1022A0000061914206D8D11A8269914206D2011D7D
:1022B000286907E09A4203D2994201D3012403E03E
:1022C000011DE86800F076FA204670BD94000020F9
:1022D00010B5044600F092FAA06B28B15FF000043C
:1022E00000F0ACFA204610BD0124F9E730B589B002
:1022F0003C4D6EE00498002806DADDE90601059AF7
:1023000090470498002864DB069C606910B1201D8A
:1023100000F018FA03A800F0D7F8024604980A283B
:1023200057D2DFE800F00505052D334A05052D33AA
:1023300094F8280040F0010084F828000599A0696D
:10234000059B01442046FFF7A7FF68B3216A20469A
:10235000884794F8280040073BD500200090059856
:10236000A169002342181946204601F07BFAD8B92A
:10237000502080F31188BFF34F8FBFF36F8FFEE7BC
:1023800014F8280F20F00100207022E094F82800B3
:1023900040F0010084F828000598A06128B1811858
:1023A00013462046FFF778FF13E0502080F3118892
:1023B000BFF34F8FBFF36F8FFEE794F828008107BC
:1023C00003D4204600F04EFA03E020F0010084F828
:1023D0002800002204A9286800F09CFE002889D16A
:1023E00009B030BD940000202DE9FC410F460546A0
:1023F00000F0D0FB01A800F067F80446019818B17E
:1024000001F09EF9BDE8FC81254EAFB1306900684E
:10241000D0B30027291B3A46306800F0A5FA01F036
:102420008FF90028EED11F494FF080500860BFF3AC
:102430004F8FBFF36F8FE5E7A542EBD801F080F92E
:10244000F0682746C068C468201D00F07BF994F846
:102450002800410719D5A0692B4641193A46204664
:10246000FFF71AFFA8B100200346014600902A4654
:10247000204601F0F7F960B9502080F31188BFF3CE
:102480004F8FBFF36F8FFEE707E020F0010084F865
:102490002800216A20468847B4E70127BAE70000F0
:1024A0009400002004ED00E00648416B096829B162
:1024B000416BC968C9684968816270474FF0FF3154
:1024C000FAE700005800002070B5054601F01AF840
:1024D000064E0446B068844203D200F009F8012099
:1024E00000E0002028602046B46070BD9400002009
:1024F000F8B5194D20E0C068C4680668201D00F0DA
:1025000021F9216A2046884794F82800400713D50E
:10251000A0693044B04206D924616060211DE8689A
:1025200000F048F908E000200346014600903246DA
:10253000204601F097F938B1E86801680029DAD13E
:102540002969C5E90310F8BD502080F31188BFF355
:102550004F8FBFF36F8FFEE794000020084840685C
:10256000401C4FF0500080F3118804D0BFF34F8F10
:10257000BFF36F8FFEE7BFF34F8FBFF36F8FFEE7A1
:10258000CC000020074CE068016841B1C068002120
:10259000D0F80000FFF728FFFFF7A8FEF3E70121BE
:1025A0000020F7E7940000202DE9F041044600F0F8
:1025B00025F994F9455004F1240609E0606A48B110
:1025C000304601F085F808B100F01EFA6D1E6DB2BC
:1025D000002DF3DC4FF0FF3684F8456000F02EF953
:1025E00000F00CF994F9445004F1100709E0206957
:1025F00048B1384601F06CF808B100F005FA6D1EDC
:102600006DB2002DF3DC84F84460BDE8F04100F0C9
:1026100015B900002DE9F0410546002700F0BAFA8F
:10262000324E306808B9FFF751FD706905424ED14E
:10263000C5B3083568070ED005F00700C0F10800E3
:102640000544680707D0502080F31188BFF34F8FEF
:10265000BFF36F8FFEE72DB37068854237D82348EC
:10266000183001460C6801E020460C466168A9421A
:1026700002D221680029F7D131688C4227D007683F
:102680002168016060680837411B10290FD9601963
:10269000420708D0502080F31188BFF34F8FBFF35B
:1026A0006F8FFEE713E041606560FFF7CFFD616863
:1026B0007068401A7060B268904200D2B060706971
:1026C00001430020C4E90001F068401CF06001F003
:1026D00037F8780707D0502080F31188BFF34F8F69
:1026E000BFF36F8FFEE73846BDE8F081AC000020F5
:1026F0000449086818B10868026D521C0265086830
:10270000704700005800002010B5031F4FF0807480
:102710001C601B1F21F001011960191F044B0B6085
:1027200014390A60091F6FF0020244380A6010BDB4
:102730005D2500080248D0E90221C0E90212704775
:1027400028000020D0E9013201699A60D0E9012314
:102750005A604A68824201D182684A60002202615E
:102760000868401E0860086870470000034B03605B
:1027700003F15C000860802010607047A4520020C4
:10278000044B036003F15C0008604FF4807010603C
:10279000704700000055002000F108014FF0FF32A3
:1027A000C0E90112C1600161002101607047002190
:1027B0000161704730B50B685A1C02D000F1080265
:1027C00002E0026904E02246546825689D42FAD975
:1027D00053684B6099608A60516008610168491CC8
:1027E000016030BD42684A6093688B6093685960AD
:1027F000916008610168491C01607047502080F3B6
:102800001188BFF34F8FBFF36F8F0A494868401C90
:10281000486001280CD10848006810F0FF0F07D06D
:10282000502080F31188BFF34F8FBFF36F8FFEE707
:1028300070470000CC00002004ED00E00849486823
:1028400028B1401E486001D180F3118870475020A4
:1028500080F31188BFF34F8FBFF36F8FFEE7000047
:10286000CC00002070B500282AD0164DA0F1080435
:1028700060686969084207D1502080F31188BFF36E
:102880004F8FBFF36F8FFEE722683AB1502080F37D
:102890001188BFF34F8FBFF36F8FFEE788436060EF
:1028A00000F078F960686968084468602046FFF7BE
:1028B000CDFC2869401C2861BDE8704000F040BF95
:1028C00070BD0000AC0000204FF0E020002101614D
:1028D000816105494FF47A720968B1FBF2F1491E32
:1028E00041610721016170475400002010B5FDF7D8
:1028F000F9FC114910280ED300F1E02090F8F00304
:102900000A78904207D2502080F31188BFF34F8F8E
:10291000BFF36F8FFEE709480068896800F4E06044
:10292000884207D9502080F31188BFF34F8FBFF33F
:102930006F8FFEE710BD0000CC0000200CED00E022
:1029400010B5084B002200BF53F832401CB1521C96
:10295000082AF9D310BD43F8321003EBC2014860D6
:1029600010BD0000884C002070B515460E46044688
:10297000FFF744FF94F944100020491C01D184F86A
:10298000440094F94510491C01D184F84500FFF733
:1029900055FFA06B28B92A46314604F1240000F007
:1029A00051F82046BDE87040FFF7FEBD10B50200AB
:1029B00014D00F48006B38B1502080F31188BFF35A
:1029C0004F8FBFF36F8FFEE700F0E4F80021104651
:1029D000FFF756FA00F0B4FE002807D105494FF082
:1029E00080500860BFF34F8FBFF36F8F10BD0000A2
:1029F0005800002004ED00E002490A6A0260C9683C
:102A0000416070475800002001490120C8617047AB
:102A10005800002010B50C4650B10949096818311A
:102A2000FFF7C8FE2046BDE810400121FFF728BA95
:102A3000502080F31188BFF34F8FBFF36F8FFEE7F5
:102A40005800002070B514460D4668B10A4909685F
:102A50001831FFF7C7FE0CB14FF0FF35214628466D
:102A6000BDE87040FFF70CBA502080F31188BFF327
:102A70004F8FBFF36F8FFEE75800002070B5040042
:102A80003ED0226DA2B1E06C884200D30146E06ADC
:102A9000884235D0012A33D11A4D2A6894420FD189
:102AA000502080F31188BFF34F8FBFF36F8FFEE785
:102AB000502080F31188BFF34F8FBFF36F8FFEE775
:102AC000E162A269002A02DBC1F13801A1610E4E68
:102AD00000EB8000616906EB8000814210D1201D6F
:102AE000FFF730FEE06A2969884200D9286100EBCF
:102AF000800006EB8000211DBDE87040FFF772BE2C
:102B000070BD000058000020C84C002030B587B0D0
:102B10000024039405AA04A903A80494FFF726FE41
:102B2000DDE903010094CDE90110002315A1174848
:102B3000059A00F0AEFC164D0028E8621FD000F0A8
:102B400061FE012809D0401C19D1502080F3118862
:102B5000BFF34F8FBFF36F8FFEE7502080F31188D4
:102B6000BFF34F8FBFF36F8F4FF0FF30A86201208C
:102B70006861EC6007B0BDE8304000F045B807B0D0
:102B800030BD000049444C450000000019210008F8
:102B9000580000200248016B491C01637047000087
:102BA00058000020164810B5016B11B10121C16118
:102BB00010BD0021C1610169124A01E0B9B1491E8D
:102BC00001EB810352F82330002BF7D001EB810396
:102BD00002EB830202F1080453685B685360A3426E
:102BE00001D15B685360DA680260016110BD50205A
:102BF00080F31188BFF34F8FBFF36F8FFEE70000A4
:102C000058000020C84C00201CB537480168374ADE
:102C1000914207D1502080F31188BFF34F8FBFF34B
:102C20006F8FFEE700683149491E884207D1502066
:102C300080F31188BFF34F8FBFF36F8FFEE72C49EE
:102C400008780190FF20087008788DF800009DF842
:102C500000009DF8002000F0F000904207D05020C6
:102C600080F31188BFF34F8FBFF36F8FFEE79DF89E
:102C70000000204C00F0500020700720A06005E00C
:102C80009DF8002052008DF80020401E9DF8002085
:102C90001206F5D4A060032807D0502080F31188D5
:102CA000BFF34F8FBFF36F8FFEE74FF44070A0600C
:102CB000019808700C482030016841F470010160EF
:102CC000016841F070410160FFF7FEFD0020606087
:102CD000FDF7D0FA0848016841F040410160FDF776
:102CE000B5FA00201CBD000000ED00E071C20F41EC
:102CF00000E400E0CC00002034EF00E010B55020EC
:102D000080F31188BFF34F8FBFF36F8F00F000FC8B
:102D100018B104494FF080500860002080F31188FA
:102D200010BD000004ED00E0F8B517460E460500A2
:102D300013D005FB06F05030FFF76CFC04000AD0FE
:102D4000002084F8460004F150023B4631462846F4
:102D50000094FFF711FA2046F8BD502080F3118847
:102D6000BFF34F8FBFF36F8FFEE738B5049D18B1E7
:102D700053B1CAB181B120E0502080F31188BFF374
:102D80004F8FBFF36F8FFEE7502080F31188BFF3A2
:102D90004F8FBFF36F8FFEE7502080F31188BFF392
:102DA0004F8FBFF36F8FFEE739B1502080F311884A
:102DB000BFF34F8FBFF36F8FFEE750241C460123F4
:102DC00084F846302B460094FFF7D6F9204638BDEC
:102DD00070B50D46040025D0FFF710FDD4E90F2093
:102DE000216802FB0011A1600021A16321686160DC
:102DF0000A46D4E90F01401E00FB0121E160214693
:102E00004FF0FF3001F8440F487004F110008DB10D
:102E1000FFF7C2FC04F12400FFF7BEFCFFF70EFD34
:102E2000012070BD502080F31188BFF34F8FBFF396
:102E30006F8FFEE721690029F0D000F049FC0028DF
:102E4000ECD004494FF080500860BFF34F8FBFF3C0
:102E50006F8FE3E704ED00E02DE9FF4782B01D46E8
:102E60008A464FF00008040003D0BAF1000F08D0E2
:102E700011E0502080F31188BFF34F8FBFF36F8FA5
:102E8000FEE7206C38B1502080F31188BFF34F8FDC
:102E9000BFF36F8FFEE7022D0AD1E06B012807D048
:102EA000502080F31188BFF34F8FBFF36F8FFEE781
:102EB00000F01AFB3F4F4FF000094FF0805648B921
:102EC000049838B1502080F31188BFF34F8FBFF3BF
:102ED0006F8FFEE7FFF792FCA06BE16B884207D390
:102EE000022D05D00498D0B1B8F1000F1AD01EE021
:102EF0002A4651462046FFF798F8616A19B104F155
:102F0000240000F0E5FB20B13E60BFF34F8FBFF31C
:102F10006F8FFFF793FC012006B0BDE8F087FFF745
:102F20008DFC22E06846FFF767FD4FF00108FFF7D0
:102F300085FCFFF72FFEFFF761FC94F94400401C6D
:102F400001D184F8449094F94500401C01D184F8E3
:102F50004590FFF773FC04A9684600F033FA30B1DE
:102F60002046FFF721FB00F0EBFB0020D4E7FFF742
:102F700045FCA06BE16B884213D1FFF75FFC04F1C5
:102F800010000499FFF746FD2046FFF70DFB00F007
:102F9000D7FB00289ED13E60BFF34F8FBFF36F8FEA
:102FA00098E7FFF74BFC2046FFF7FEFA00F0C8FB5E
:102FB00090E7000004ED00E02DE9F0471F46904641
:102FC0008946040003D0B9F1000F08D011E0502069
:102FD00080F31188BFF34F8FBFF36F8FFEE7206C34
:102FE00038B1502080F31188BFF34F8FBFF36F8F3C
:102FF000FEE7022F0AD1E06B012807D0502080F3B2
:103000001188BFF34F8FBFF36F8FFEE7FFF76EFCA2
:103010005020EFF3118680F31188BFF34F8FBFF379
:103020006F8FA06BE16B884206D3022F04D0002083
:1030300086F31188BDE8F08794F94550A06B3A46B5
:1030400049462046FEF7F1FF681C04D06D1C84F849
:1030500045500120ECE7606A0028FAD004F1240012
:1030600000F036FB0028F4D0B8F1000FF1D00121B8
:10307000C8F80010EDE770B50E46040009D0206CCA
:1030800078B1502080F31188BFF34F8FBFF36F8F5B
:10309000FEE7502080F31188BFF34F8FBFF36F8F8F
:1030A000FEE7206848B9A06838B1502080F3118845
:1030B000BFF34F8FBFF36F8FFEE7FFF717FC502072
:1030C000EFF3118580F31188BFF34F8FBFF36F8F3C
:1030D000A16BE06B884218D994F94500491CA163A3
:1030E000411C04D0401C84F8450001200EE0606AB9
:1030F0000028FAD004F1240000F0EAFA0028F4D005
:10310000002EF2D001203060EFE7002085F3118817
:1031100070BD00002DE9F747002683B08A46040001
:1031200003D0BAF1000F08D011E0502080F31188CD
:10313000BFF34F8FBFF36F8FFEE7206C38B1502085
:1031400080F31188BFF34F8FBFF36F8FFEE700F05E
:10315000CBF9DFF8F4804FF000094FF0805748B901
:10316000059838B1502080F31188BFF34F8FBFF31B
:103170006F8FFEE7FFF742FBA56BC5B151462046B6
:10318000FEF740FF6D1EA563206950B104F11000E9
:1031900000F09EFA28B1C8F80070BFF34F8FBFF35C
:1031A0006F8FFFF74BFB012006B0BDE8F087059855
:1031B00008B11EB106E0FFF741FB27E06846FFF7C4
:1031C0001BFC0126FFF73AFBFFF7E4FCFFF716FBB9
:1031D00094F94400401C01D184F8449094F94500CE
:1031E000401C01D184F84590FFF728FB05A96846EB
:1031F00000F0E8F8002820460AD0FFF7D5F900F0E3
:103200009FFA2046FFF764F80028B3D00020CBE7F0
:10321000FFF75EF890B104F124000599FFF7FAFB7F
:103220002046FFF7C1F900F08BFA0028A2D1C8F8B8
:103230000070BFF34F8FBFF36F8F9BE72046FFF700
:10324000B3F900F07DFA95E704ED00E02DE9F343D2
:10325000002683B00400354609D0206C78B1502098
:1032600080F31188BFF34F8FBFF36F8FFEE75020BD
:1032700080F31188BFF34F8FBFF36F8FFEE700F02D
:1032800033F9DFF83C814FF000094FF0805748B91F
:10329000049838B1502080F31188BFF34F8FBFF3EB
:1032A0006F8FFEE7FFF7AAFAA06BC8B1401EA063BC
:1032B000206810B9FFF71CFAA060206950B104F132
:1032C000100000F005FA28B1C8F80070BFF34F8F66
:1032D000BFF36F8FFFF7B2FA012005B0BDE8F083AE
:1032E000049808B166B10FE03DB1502080F3118819
:1032F000BFF34F8FBFF36F8FFEE7FFF79FFA5DE0DD
:103300006846FFF779FB0126FFF798FAFFF742FCC2
:10331000FFF774FA94F94400401C01D184F84490FA
:1033200094F94500401C01D184F84590FFF786FAD6
:1033300004A9684600F046F80028204612D0FFF79E
:1033400033F900F0FDF92046FEF7C2FF0028A9D0AE
:103350009DB3FFF753FA606A50B3206B0068C0F169
:10336000380126E0FEF7B4FFE0B1206838B9FFF776
:1033700045FAA06800F070F90546FFF75FFA04F11E
:1033800024000499FFF746FB2046FFF70DF900F0F3
:10339000D7F9002886D1C8F80070BFF34F8FBFF36C
:1033A0006F8F7FE72046FFF7FFF800F0C9F979E754
:1033B0000021A068FFF762FB9FE7FFE700208CE792
:1033C00004ED00E02DE9F0410C46050011D0C4B138
:1033D000FFF714FA174BDA686E682068911B471CD8
:1033E00017D02F681B6A9F4219D0964217D8012424
:1033F00010E0502080F31188BFF34F8FBFF36F8F21
:10340000FEE7502080F31188BFF34F8FBFF36F8F1B
:10341000FEE70024FFF712FA2046BDE8F08188425B
:1034200005D9401A20602846FFF7E6FAF1E70020A8
:103430002060DCE7580000202DE9FF5F8346DDE9CE
:103440000E87994616468A469000FFF7E3F8050076
:103450001CD05C20FFF7DEF8040014D000202563A8
:1034600084F85900CDE90240CDE900874B46324649
:1034700051465846FEF792FE2046FEF72FFD0120EA
:1034800004B0BDE8F09F2846FFF7ECF94FF0FF309D
:10349000F6E7F0B585B0DDE90B640A9DA6B1DCB1B5
:1034A0005C2700972663022684F85960002604AF43
:1034B000CDE90246CDE90057FEF770FE2046FEF743
:1034C0000DFD049805B0F0BD502080F31188BFF3C6
:1034D0004F8FBFF36F8FFEE7502080F31188BFF34B
:1034E0004F8FBFF36F8FFEE70548416919B1006B3D
:1034F00018B100207047012070470220704700007B
:10350000580000200148C0687047000058000020A3
:103510002DE9F0412E4C0027206B28B1A069401CFA
:10352000A0613846BDE8F081E668761CE66013D1FC
:10353000606B006838B1502080F31188BFF34F8F63
:10354000BFF36F8FFEE7606BA16B6163A063206ABE
:10355000401C2062FEF7A8FFA06ADFF87880864250
:1035600009D3606B0068A0B1606BC068C56868680B
:10357000864211D2A0622068C06A00EB800158F830
:103580002100012800D90127E0690028C9D00127BE
:10359000C7E74FF0FF30EDE7281DFFF7D3F8A86A23
:1035A00018B105F11800FFF7CDF8E86A21698842E3
:1035B00000D9206100EB800108EB8100291DFFF795
:1035C00011F9E86A2168C96A8842CAD30127C8E7A5
:1035D00058000020C84C002070B504004FF00001D6
:1035E00033D01B4D2868844207D0502080F31188C7
:1035F000BFF34F8FBFF36F8FFEE7206D38B1401ED2
:103600002065E36CE26A9A421FD040B11DE0502071
:1036100080F31188BFF34F8FBFF36F8FFEE7201D3C
:10362000FFF790F8E06CE062C0F13800A061E06A5A
:103630002969884200D92861064900EB800001EB26
:103640008000211DFFF7CEF80121084670BD000063
:1036500058000020C84C002070B504004FF0000056
:103660002BD0194DE16A2A68D26A914226D2A0690C
:10367000002804DB2868C06AC0F13800A061134E3E
:1036800001EB8101606906EB8101884211D1201DA7
:10369000FFF758F82868C06AE0622969884200D9B3
:1036A000286100EB800006EB8000211DFFF79AF8EF
:1036B00002E02868C06AE062012070BDE16C2A68FF
:1036C000D26A9142F8D370BD58000020C84C002047
:1036D00070B5C068C46854B104F118000646FFF71D
:1036E00031F8144D286B50B13146134815E0502085
:1036F00080F31188BFF34F8FBFF36F8FFEE7201D5C
:10370000FFF720F8E06A2969884200D928610B494F
:1037100000EB800001EB8000211DFFF763F8E06AF9
:103720002968C96A884202D90120E86170BD002079
:1037300070BD00005800002050510020C84C0020EF
:103740002DE9F0472C4D00242746286B38B1FFF7B0
:1037500055F8286B401E2863286B40B146E0502086
:1037600080F31188BFF34F8FBFF36F8FFEE7A96817
:10377000224E0120D1B3A6F5916980463068E0B1B0
:10378000F068C46804F11800FEF7DCFF201DFEF7A6
:10379000D9FFE06A2969884200D9286100EB8001DD
:1037A00009EB8100211DFFF71DF8E06A2968C96A4D
:1037B0008842E3D3C5F81C80E0E70CB1FEF774FE45
:1037C000AC694CB14FEA0806FFF7A2FE00B1EE610A
:1037D000641EF9D10020A861E86938B108490127C1
:1037E00038070860BFF34F8FBFF36F8FFFF726F8DE
:1037F0003846BDE8F08700005800002050510020F6
:1038000004ED00E010B586B0FEF7D0FB114C206847
:10381000B8B100200390049005AA04A903A8FEF7FC
:10382000AFFFDDE9032102208DE8070000230AA194
:103830000B48059AFFF72DFE606010B106B001201D
:1038400010BD502080F31188BFF34F8FBFF36F8FEF
:10385000FEE7000094000020546D72205376630050
:10386000852500082DE9FF411E46134602000A9DEA
:103870004FF0000016D0144C2768002F0FD0CDE970
:1038800000130292062917DAFFF72EFE02284FF0E6
:1038900000030FD0002269462068FFF7DDFA04B06C
:1038A000BDE8F081502080F31188BFF34F8FBFF344
:1038B0006F8FFEE72A46EEE7002332466946384618
:1038C000FFF77AFBEBE70000940000204FF0407018
:1038D000E1EE100A70470000000000000000000048
:1038E00000000000000000000000000000000000D8
:1038F00000000000000000000C000C000C000C0098
:103900000C000C000C000C0000000C00000000007B
:10391000000000000000000000001DC01DC0088065
:103920000880088000000000000000000000000087
:1039300000000000000000000D800D800D800D8053
:103940003FC01B003FC01B001B001B001B000000F2
:1039500000000000000004001F803180318038002A
:103960001E000F000380318031803F0004000400FE
:10397000000000000000000018002400240018C00F
:1039800007801E00318002400240018000000000DC
:10399000000000000000000000000F0018001800E8
:1039A00018000C001D80370033001D80000000004F
:1039B00000000000000000000000070007000200F7
:1039C00002000200000000000000000000000000F3
:1039D00000000000000000000300030006000E00CD
:1039E0000C000C000C000C000E000600030003008D
:1039F0000000000000000000180018000C00060085
:103A0000060006000600060006000C001C00180058
:103A10000000000000000000060006003FC03FC09C
:103A20000F001F801980000000000000000000004F
:103A3000000000000000000000000000040004007E
:103A400004003F80040004000400000000000000A7
:103A50000000000000000000000000000000000066
:103A60000000000000000000060004000C00080038
:103A7000080000000000000000000000000000003E
:103A800000003F8000000000000000000000000077
:103A90000000000000000000000000000000000026
:103AA00000000000000000000C000C0000000000FE
:103AB00000000000000000C000C001800180030081
:103AC000030006000C000C00180018003000300045
:103AD00000000000000000000E001B00318031805B
:103AE00031803180318031801B000E0000000000E9
:103AF000000000000000000006003E000600060076
:103B0000060006000600060006003FC00000000098
:103B100000000000000000000F001980318031809B
:103B2000030006000C00180030003F800000000079
:103B300000000000000000003F00618001800300E1
:103B40001F0003800180018061803F0000000000B1
:103B50000000000000000000070007000F000B003D
:103B60001B00130033003F8003000F8000000000A3
:103B700000000000000000001F801800180018005E
:103B80001F0011800180018021801F0000000000C3
:103B9000000000000000000007801C00180030003A
:103BA000370039803180318019800F00000000001B
:103BB00000000000000000007F004300030006003A
:103BC0000600060006000C000C000C0000000000BF
:103BD00000000000000000001F00318031803180B3
:103BE0001F0031803180318031801F0000000000D3
:103BF00000000000000000001E0033003180318012
:103C000033801D800180030007003C00000000009D
:103C100000000000000000000000000000000C0098
:103C20000C000000000000000C000C000000000070
:103C30000000000000000000000000000000030081
:103C40000300000000000000060004000800080057
:103C50000000000000000000000000C0030004009D
:103C60001800600018000400030000C000000000FD
:103C70000000000000000000000000000000000044
:103C80007FC000007FC000000000000000000000B6
:103C900000000000000000000000600018000400A8
:103CA000030000C0030004001800600000000000D2
:103CB000000000000000000000001F003180318083
:103CC000018007000C000C0000000C000000000048
:103CD00000000000000000000E0011002100210083
:103CE0002700290029002700200011000E000000F5
:103CF000000000000000000000003F000F0009006D
:103D0000198019801F8030C030C079E000000000A9
:103D1000000000000000000000007F0031803180C2
:103D200031803F003180318031807F000000000011
:103D3000000000000000000000001F4030C0604094
:103D4000600060006000604030801F0000000000E4
:103D5000000000000000000000007F00318030C043
:103D600030C030C030C030C031807F000000000063
:103D7000000000000000000000007F8030803080E4
:103D800032003E003200308030807F800000000032
:103D9000000000000000000000007FC03040304004
:103DA00032003E003200300030007C000000000095
:103DB000000000000000000000001E8031806080D4
:103DC0006000600067C0618031801F00000000005B
:103DD000000000000000000000007BC03180318046
:103DE00031803F803180318031807BC00000000015
:103DF000000000000000000000003FC006000600B8
:103E0000060006000600060006003FC00000000095
:103E1000000000000000000000001FC003000300BD
:103E2000030003006300630063003E000000000025
:103E3000000000000000000000007BC03180330063
:103E400036003C003E003300318079C000000000A5
:103E5000000000000000000000007E0018001800B4
:103E6000180018001840184018407FC000000000DB
:103E700000000000000000000000E0E060C071C031
:103E80007BC06AC06EC064C060C0FBE00000000080
:103E90000000000000000000000073C03180398085
:103EA0003D8035803780338031807980000000008C
:103EB000000000000000000000001F00318060C012
:103EC00060C060C060C060C031801F0000000000A2
:103ED000000000000000000000007F003180318001
:103EE000318031803F00300030007E000000000053
:103EF000000000000000000000001F00318060C0D2
:103F000060C060C060C060C031801F000CC01F80F6
:103F1000000000000000000000007F0031803180C0
:103F200031803E003300318031807CE000000000B1
:103F3000000000000000000000001F803180318080
:103F400038001F000380318031803F0000000000F6
:103F5000000000000000000000007F804C804C80CA
:103F60004C800C000C000C000C003F000000000016
:103F7000000000000000000000007BC031803180A4
:103F8000318031803180318031801F00000000009D
:103F9000000000000000000000007BC03180318084
:103FA0001B001B001B000A000E000E00000000009A
:103FB00000000000000000000000FBE060C064C0E2
:103FC0006EC06EC02A803B803B80318000000000C4
:103FD000000000000000000000007BC031801B00DA
:103FE0000E000E000E001B0031807BC000000000A0
:103FF0000000000000000000000079E030C01980DF
:104000000F0006000600060006001F8000000000EA
:10401000000000000000000000003F80218023001D
:10402000060004000C00188030803F800000000073
:1040300000000000000000000780060006000600E7
:1040400006000600060006000600060006000780BF
:1040500000000000000030003000180018000C00C4
:104060000C000600030003000180018000C000C0B6
:1040700000000000000000001E0006000600060010
:1040800006000600060006000600060006001E00E8
:1040900000000000000004000A000A001100208057
:1040A0002080000000000000000000000000000070
:1040B0000000000000000000000000000000000000
:1040C00000000000000000000000000000000000F0
:1040D00000000000FFE008000400020000000000F3
:1040E00000000000000000000000000000000000D0
:1040F00000000000000000000000000000001F00A1
:10410000018001801F80318033801DC000000000CD
:104110000000000000000000700030003000370098
:10412000398030C030C030C03980770000000000D6
:1041300000000000000000000000000000001E80E1
:10414000318060806000608031801F0000000000CE
:1041500000000000000000000380018001801D803D
:10416000338061806180618033801DC00000000069
:1041700000000000000000000000000000001F0020
:10418000318060C07FC0600030C01F800000000030
:10419000000000000000000007E00C000C003F8061
:1041A0000C000C000C000C000C003F800000000014
:1041B00000000000000000000000000000001DC022
:1041C000338061806180618033801D800180018047
:1041D0001F000000000000007000300030003700B9
:1041E000398031803180318031807BC00000000017
:1041F00000000000000000000600060000001E0095
:10420000060006000600060006003FC00000000091
:1042100000000000000000000600060000003F0053
:104220000300030003000300030003000300030076
:104230003E000000000000007000300030003780B9
:1042400036003C003C003600330077C00000000020
:1042500000000000000000001E000600060006002E
:10426000060006000600060006003FC00000000031
:1042700000000000000000000000000000007F803F
:1042800036C036C036C036C036C076E0000000000A
:1042900000000000000000000000000000007700A7
:1042A000398031803180318031807BC00000000056
:1042B00000000000000000000000000000001F00DF
:1042C000318060C060C060C031801F00000000000D
:1042D0000000000000000000000000000000770067
:1042E000398030C030C030C03980370030003000F5
:1042F0007C000000000000000000000000001DC065
:10430000338061806180618033801D800180018005
:1043100007C00000000000000000000000007B80DB
:104320001CC018001800180018007F0000000000D2
:1043300000000000000000000000000000001F80DE
:1043400031803C001F00038031803F0000000000EE
:1043500000000000000000001800180018007F0096
:10436000180018001800180018800F000000000046
:10437000000000000000000000000000000073804A
:10438000318031803180318033801DC000000000D9
:1043900000000000000000000000000000007BC0E2
:1043A000318031801B001B000E000E000000000059
:1043B0000000000000000000000000000000F1E02C
:1043C00060C064C06EC03B803B8031800000000054
:1043D00000000000000000000000000000007BC0A2
:1043E0001B000E000E000E001B007BC00000000032
:1043F000000000000000000000000000000079E064
:1044000030C0198019800B000F00060006000C0058
:104410003E000000000000000000000000003F809F
:10442000218003000E00180030803F800000000053
:10443000000000000000000006000C000C000C0052
:104440000C000C0018000C000C000C000C00060006
:104450000000000000000000060006000600060044
:10446000060006000600060006000600060006001C
:1044700000000000000000000C000600060006001E
:1044800006000600030006000600060006000C00F9
:10449000000000000000000000000000000000001C
:1044A000180024800300000000000000000000004D
:1044B00000000000000000004001000000000000BB
:1044C00000000000000000000102030406070809C4
:1044D0000000000001020304F8440008000000206E
:1044E000D8000000C4010008D0450008D800002012
:1044F000C89B0000E0010008D63800080B0010003F
:104500000000000000000000F00040010001010078
:10451000E0FF00000000000000000020010000009B
:104520000000000000000000F000002070260020C5
:10453000000000000000000000000000000000007B
:104540000100000010000000000000000024F40042
:10455000000000000000000000000000000000005B
:10456000000000000000000000000000000000004B
:10457000000000000000000000000000000000003B
:10458000000000000000000000000000000000002B
:10459000000000000000000000000000000000001B
:1045A000000000000000000000000000000000000B
:1045B00000000000000000000000000000000000FB
:1045C0000000000000000000AAAAAAAA0000000043
:040000050800018965
:00000001FF
